:100000000C9434000C9451000C9451000C94810019
:100010000C9453000C9451000C9451000C9451001A
:100020000C9451000C9451000C9451000C9451000C
:100030000C9451000C94AF000C9451000C9451009E
:100040000C9451000C9451000C9451000C945100EC
:100050000C9451000C9451000C9451000C945100DC
:100060000C9451000C94510011241FBECFEFD8E026
:10007000DEBFCDBF11E0A0E0B1E0E8E7F1E102C0F2
:1000800005900D92A232B107D9F721E0A2E2B1E0CA
:1000900001C01D92A534B207E1F70E94EB000C9459
:1000A000BA080C9400001F920F920FB60F92112401
:1000B0008F939F9380910101811114C080918400DE
:1000C0009091850090933F0180933E0181E0809361
:1000D0000101809337019F918F910F900FBE0F9078
:1000E0001F90189510923B0110923A018091840064
:1000F00090918500909343018093420110920101F9
:10010000EACF1F920F920FB60F9211248F939F93F5
:1001100080910001811114C080918400909185002C
:1001200090933D0180933C0181E080930001809396
:1001300036019F918F910F900FBE0F901F901895D1
:1001400010923901109238018091840090918500BD
:10015000909341018093400110920001EACF1F92D9
:100160000F920FB60F9211248F939F9380913A01B3
:1001700090913B01019690933B0180933A018091CD
:10018000380190913901019690933901809338019B
:100190009F918F910F900FBE0F901F901895FC01AB
:1001A000208181E090E002C0880F991F6A95E2F7F4
:1001B000382F3095922F9323908300C000C0000009
:1001C0009081892B808383E08A95F1F700008081FC
:1001D000832380830895CF93DF93CDB7DEB72E9727
:1001E0000FB6F894DEBF0FBECDBF0E94B4033D989A
:1001F00022983C9A219AE8E6F0E08081836080832F
:10020000ECE6F0E0808180628083EBE6F0E08081C4
:100210008460808310928000E1E8F0E0808181605A
:100220008083EFE6F0E080818160808378948EE0C7
:10023000FE013196DF011D928A95E9F782E08C83F9
:100240008DE893E09A8789870E9475038E010F5F7E
:100250001F4F0F2EF5E0CF2EF1E0DF2EF02D0F2EE9
:10026000F5E1EF2EF1E0FF2EF02DBEC00E94D70386
:1002700064E088E290E00E94CF00809137018823FB
:10028000E1F3F89480913E0190913F0190932D010C
:1002900080932C01809142019091430190932B0116
:1002A00080932A0180913A0190913B01909325011E
:1002B0008093240110923701789460912C01709101
:1002C0002D0180912A0190912B01681B790B072E3B
:1002D000000C880B990B0E94A60428E23EE74CE034
:1002E0005DE30E94560520E030E040E05FE30E94BD
:1002F00056056093320170933301809334019093DB
:10030000350161E085E290E00E94CF0080913601E6
:100310008823E1F3F89480913C0190913D01909302
:10032000290180932801809140019091410190938F
:100330002701809326018091380190913901909393
:100340002301809322011092360178946091280154
:10035000709129018091260190912701681B790BEA
:10036000072E000C880B990B0E94A60428E23EE79A
:100370004CE05DE30E94560520E030E040E05FE3A2
:100380000E94560560932E0170932F0180933001D7
:100390009093310120E030E040E751E46091320178
:1003A0007091330180913401909135010E9469046C
:1003B00088230CF45BCF20E030E040E751E460910B
:1003C0002E0170912F0180913001909131010E9496
:1003D000690488230CF44ACF0E94F503A3E2B4EF2A
:1003E0001197F1F700C0000064E088E290E00E94FD
:1003F000CF00809137018823E1F3F89480913E018A
:1004000090913F0190932D0180932C0180914201A6
:100410009091430190932B0180932A0180913A019E
:1004200090913B0190932501809324011092370114
:10043000789460912C0170912D0180912A01909106
:100440002B01681B790B072E000C880B990B0E945F
:10045000A60428E23EE74CE05DE30E94560520E05A
:1004600030E040E05FE30E945605609332017093F4
:100470003301809334019093350161E085E290E08F
:100480000E94CF00809136018823E1F3F894809197
:100490003C0190913D019093290180932801809126
:1004A0004001909141019093270180932601809112
:1004B0003801909139019093230180932201109289
:1004C000360178946091280170912901809126016C
:1004D00090912701681B790B072E000C880B990B54
:1004E0000E94A60428E23EE74CE05DE30E94560528
:1004F00020E030E040E05FE30E94560560932E016B
:1005000070932F018093300190933101980142E064
:1005100050E061E070E082E091E00E94D5054090FB
:100520003201509033016090340170903501C30165
:10053000B2010E946E044B01072E000C880B990B30
:100540000E94A6049B01AC01C301B2010E94FC03FE
:1005500020E030E040E251E40E9456050E946E0423
:100560007F936F939F928F92DF92CF921F930F93FF
:100570000E94C305980142E050E061E070E082E132
:1005800091E00E94D50540902E0150902F0160907F
:10059000300170903101C301B2010E946E044B0121
:1005A000072E000C880B990B0E94A6049B01AC013E
:1005B000C301B2010E94FC0320E030E040E251E4BC
:1005C0000E9456050E946E047F936F939F928F92B4
:1005D000FF92EF921F930F930E94C3050FB6F894FA
:1005E000DEBF0FBECDBFD6CE5998611108C0589856
:1005F00098B1907F892B88B95A9A5A980895589A39
:10060000F7CF599A97B1907F97B981110BC058983D
:100610005A9A000086B15A9897B19F6097B9599835
:100620008F700895589AF4CFCF93DF93C82FD62FA9
:1006300082958F700E94F4026D2F8C2F8F700E9414
:10064000F402DF91CF910895CF93DF93C82F0E94DA
:100650000103D82FD295D07F8C2F0E9401038D2BC0
:10066000DF91CF91089580E00E9424038823DCF37A
:100670000895509A519A529A87B18F6087B985EA46
:100680009EE00197F1F700C0000060E083E00E9467
:10069000F40280E094E00197F1F700C0000060E010
:1006A00083E00E94F40291E29A95F1F7000060E085
:1006B00083E00E94F4028CE08A95F1F7000060E08C
:1006C00082E00E94F40280E00E94330360E088E24E
:1006D0000E94140380E00E94330360E088E00E94DF
:1006E000140380E00E94330308950E94390360E000
:1006F00081E00E94140381E00E94330360E086E001
:100700000E94140380E00E94330360E08EE00E94A8
:10071000140380E00E9433030895CF93C82F809183
:100720004401811111C0CB3139F481E0809344013F
:1007300090E080E0CF91089580E00E94330361E073
:100740008C2F0E941403F4CF80E00E94330360E0FA
:100750008C2F0E941403C43018F010924401E8CF8B
:1007600081E00E943303F9CF569A93E094BD82E072
:1007700085BD209A57985F9A569A94BD85BD539A25
:1007800081E28093B0008DE08093B1008FE480938C
:10079000B3001092B400089584B5806884BD8CE7DE
:1007A00087BD089584B58F7784BD17BC089582E016
:1007B0008093B40085B191E0892785B90E94CC036C
:1007C0002FE986E891E0215080409040E1F700C099
:1007D00000000E94D2032FE986E891E0215080407A
:1007E0009040E1F700C00000089528980E94D203CD
:1007F00086E08093B40008955058BB27AA270E9432
:1008000014040C941C050E940E0538F00E94150576
:1008100020F039F49F3F19F426F40C940B050EF4E4
:10082000E095E7FB0C940505E92F0E942D0558F390
:10083000BA17620773078407950720F079F4A6F5C5
:100840000C944F050EF4E0950B2EBA2FA02D0B0142
:10085000B90190010C01CA01A0011124FF27591B05
:1008600099F0593F50F4503E68F11A16F040A22F0B
:10087000232F342F4427585FF3CF4695379527957C
:10088000A795F0405395C9F77EF41F16BA0B620B7B
:10089000730B840BBAF09150A1F0FF0FBB1F661FC2
:1008A000771F881FC2F70EC0BA0F621F731F841F05
:1008B00048F4879577956795B795F7959E3F08F02B
:1008C000B0CF9395880F08F09927EE0F97958795ED
:1008D00008950E94E10408F481E008950E947504DF
:1008E0006894B1110C94500508950E94350588F064
:1008F0009F5798F0B92F9927B751B0F0E1F0660FE4
:10090000771F881F991F1AF0BA95C9F714C0B13024
:1009100091F00E944F05B1E008950C944F05672FA8
:10092000782F8827B85F39F0B93FCCF38695779553
:100930006795B395D9F73EF490958095709561953C
:100940007F4F8F4F9F4F0895E89409C097FB3EF467
:1009500090958095709561957F4F8F4F9F4F99230C
:10096000A9F0F92F96E9BB279395F695879577958A
:100970006795B795F111F8CFFAF4BB0F11F460FF4A
:100980001BC06F5F7F4F8F4F9F4F16C0882311F0A2
:1009900096E911C0772321F09EE8872F762F05C0B6
:1009A000662371F096E8862F70E060E02AF09A9551
:1009B000660F771F881FDAF7880F9695879597F946
:1009C0000895990F0008550FAA0BE0E8FEEF1616E0
:1009D0001706E807F907C0F012161306E407F50733
:1009E00098F0621B730B840B950B39F40A2661F0A7
:1009F000232B242B252B21F408950A2609F4A1404A
:100A0000A6958FEF811D811D089597F99F6780E856
:100A100070E060E008959FEF80EC089500240A9450
:100A20001616170618060906089500240A941216C9
:100A30001306140605060895092E0394000C11F4FC
:100A4000882352F0BB0F40F4BF2B11F460FF04C0A9
:100A50006F5F7F4F8F4F9F4F089557FD9058440F02
:100A6000551F59F05F3F71F04795880F97FB991F0D
:100A700061F09F3F79F087950895121613061406CA
:100A8000551FF2CF4695F1DF08C016161706180657
:100A9000991FF1CF86957105610508940895E89432
:100AA000BB2766277727CB0197F908950E94690530
:100AB0000C941C050E940E0538F00E94150520F0CC
:100AC000952311F00C9405050C940B0511240C943E
:100AD00050050E942D0570F3959FC1F3950F50E0CE
:100AE000551F629FF001729FBB27F00DB11D639FE0
:100AF000AA27F00DB11DAA1F649F6627B00DA11D86
:100B0000661F829F2227B00DA11D621F739FB00D2B
:100B1000A11D621F839FA00D611D221F749F33279B
:100B2000A00D611D231F849F600D211D822F762F34
:100B30006A2F11249F5750409AF0F1F088234AF011
:100B4000EE0FFF1FBB1F661F771F881F915050407D
:100B5000A9F79E3F510580F00C9405050C945005B3
:100B60005F3FE4F3983ED4F3869577956795B79504
:100B7000F795E7959F5FC1F7FE2B880F911D96951E
:100B8000879597F90895B0E0A0E0E9ECF5E00C94C2
:100B90009308AE01475F5F4F6F8178858D819E819D
:100BA0000E940506E2E00C94AF08B0E0A0E0EBED97
:100BB000F5E00C9489085B014A017901D90113968B
:100BC0002C91D0E0C0E021FF1AC0C815D905B9F0BA
:100BD0008C016C01CA0CDB1C0CC00F5F1F4FD701CE
:100BE0001896ED91FC91B701DC018C910995892B48
:100BF00031F4C8010C151D0581F72196E6CFCE0111
:100C0000CDB7DEB7ECE00C94A508ABE0B0E0EBE0CC
:100C1000F6E00C9483087C013B018A01FC011782F9
:100C20001682838181FFC8C1CE0101965C01F70164
:100C30009381F30193FD859193FF81913F01882377
:100C400009F453C1853239F493FD859193FF819165
:100C50003F01853229F4B70190E00E94F507E7CF04
:100C6000912C212C312CFFE1F31538F08B3211F14E
:100C700090F4803209F1833229F137FC3CC020ED39
:100C8000280F2A3050F536FE20C08AE0989E200DAD
:100C90001124922E06C08D3291F0803371F7689442
:100CA00030F8F30193FD859193FF81913F0181110C
:100CB000DACF21C0689431F8689432F8F2CF6894A2
:100CC00033F8EFCF689434F8ECCFEAE02E9E200D95
:100CD0001124222E689435F8E4CF8E3229F436FCA4
:100CE00004C1689436F8DDCF8C3619F4689437F86F
:100CF000D8CF8836B1F2982F9F7D95549330E0F08D
:100D00008336A1F18337C1F1833509F063C028012F
:100D1000F2E04F0E511CF801C080D180692D70E0C7
:100D200036FC02C06FEF7FEFC6010E94DF074C0167
:100D3000689437F882010AC00C5F1F4FFFE3F98304
:100D400088248394912C6501E89437F833FE2DC0F4
:100D5000522C8114910471F5552009F468CFB70124
:100D600080E290E00E94F5075A94F6CFF801808166
:100D700089830E5F1F4FE4CF2801F2E04F0E511C14
:100D8000F801C080D180692D70E036FC02C06FEFA1
:100D90007FEFC6010E94EA074C018201D5CFB7015F
:100DA00080E290E00E94F5072A942814190409F0C3
:100DB000B0F7CECFF60137FC859137FE81916F01F8
:100DC000B70190E00E94F50751105A94F1E08F1A94
:100DD0009108BFCF843619F0893609F077C0F80141
:100DE00037FE6BC060817181828193810C5F1F4FE0
:100DF000F32DFF763F2E97FF09C090958095709553
:100E000061957F4F8F4F9F4F689437F82AE030E00D
:100E1000A5010E942508C82ECA188C2C432C36FE2A
:100E20000CC0E89440F8C91440F434FE05C032FC0C
:100E300003C0F32DFE7E4F2E892C44FE95C0FE018B
:100E4000EC0DF11D8081803309F087C0242D297EAF
:100E5000422E842D8870582E43FC95C040FE8FC0D2
:100E60009C2C821418F42C0C922C981844FE91C0DF
:100E7000B70180E390E00E94F50742FE09C088E7D1
:100E800090E041FE02C088E590E0B7010E94F507BE
:100E9000C91408F48AC0CA94D12C9FEFC91AD90A80
:100EA000CA0CDB1CF60182916F01B70190E00E9431
:100EB000F507AC14BD04B1F74FCF60817181072EE7
:100EC000000C880B990B0E5F1F4F92CFD32CE89428
:100ED000D4F82AE030E0853739F1232D297FD22E4E
:100EE0008F3601F148F48835A9F0F70186819781A2
:100EF0002B96E2E10C949F08803749F08837A9F7D8
:100F0000D4FE02C06894D2F820E130E00DC06894AD
:100F1000D4F8F6CF34FE03C0822F8660D82E20E1AD
:100F200032E002C028E030E0F801D7FE0FC0608157
:100F30007181828193810C5F1F4FA5010E9425085A
:100F4000C82ECA183D2CE89437F867CF60817181AC
:100F500090E080E00E5F1F4FF0CF42FC02C0839410
:100F600078CF8394839475CF842D867809F471CFDC
:100F7000F6CFB70180E290E00E94F50783948214D7
:100F8000C0F3512C73CF522C5818821408F46ECF32
:100F9000F8CF842D867809F47BCF8BE241FE80E286
:100FA00047FC8DE2B70190E071CFB70180E390E09C
:100FB0000E94F5079A946CCF8FEF9FEF99CFFC01B9
:100FC0000590615070400110D8F7809590958E0F74
:100FD0009F1F0895FC016150704001900110D8F7E7
:100FE000809590958E0F9F1F08950F931F93CF9319
:100FF000DF93182F092FEB018B8181FD09C01FEFB3
:101000000FEF812F902FDF91CF911F910F910895B6
:1010100082FF14C02E813F818C819D812817390762
:101020003CF4E881F981CF0101969983888310838C
:101030008E819F8101969F838E83E3CFE885F9851A
:10104000812F0995892BA1F3DACFFA01AA2728303D
:1010500051F1203181F1E8946F936E7F6E5F7F4F85
:101060008F4F9F4FAF4FB1E03ED0B4E03CD0670F01
:10107000781F891F9A1FA11D680F791F8A1F911D54
:10108000A11D6A0F711D811D911DA11D20D009F4A4
:1010900068943F912AE0269F11243019305D3193E6
:1010A000DEF6CF010895462F4770405D4193B3E0CF
:1010B0000FD0C9F7F6CF462F4F70405D4A3318F076
:1010C000495D31FD4052419302D0A9F7EACFB4E027
:1010D000A6959795879577956795BA95C9F70097DF
:1010E0006105710508959B01AC010A2E0694579580
:1010F000479537952795BA95C9F7620F731F841FD7
:10110000951FA01D08952F923F924F925F926F926C
:101110007F928F929F92AF92BF92CF92DF92EF9287
:10112000FF920F931F93CF93DF93CDB7DEB7CA1B08
:10113000DB0B0FB6F894DEBF0FBECDBF09942A8833
:10114000398848885F846E847D848C849B84AA84DB
:10115000B984C884DF80EE80FD800C811B81AA8168
:10116000B981CE0FD11D0FB6F894DEBF0FBECDBF33
:08117000ED010895F894FFCF92
:1011780001011B010055333A2025642E25642063A4
:101188006D001BC00055353A2025642E2564206368
:021198006D00E8
:00000001FF
